S01900004C504C445F54656D706C6174655F4B36302E7372656334
S1130000F83F002011040000212D0000212D0000E4
S1130010212D0000212D0000212D0000212D0000A4
S1130020212D0000212D0000212D0000212D000094
S1130030212D0000212D0000212D0000212D000084
S1130040212D0000212D0000212D0000212D000074
S1130050212D0000212D0000212D0000212D000064
S1130060212D0000212D0000212D0000212D000054
S1130070212D0000212D0000212D0000212D000044
S1130080212D0000212D0000212D0000212D000034
S1130090212D0000212D0000212D0000212D000024
S11300A0212D0000212D0000212D0000212D000014
S11300B0212D0000212D0000212D0000212D000004
S11300C0212D0000212D0000212D0000212D0000F4
S11300D0212D0000212D0000212D0000212D0000E4
S11300E0212D0000212D0000212D0000212D0000D4
S11300F0212D000015290000212D000015290000E4
S1130100212D000015290000212D000015290000D3
S1130110212D000015290000212D000015290000C3
S1130120212D0000212D0000212D0000212D000093
S1130130212D0000212D0000212D0000212D000083
S1130140212D0000212D0000212D0000212D000073
S1130150090D0000090D0000090D0000090D000043
S1130160212D0000212D0000212D0000212D000053
S1130170212D0000212D0000212D0000212D000043
S1130180212D0000212D0000212D0000212D000033
S1130190212D0000BD2B0000212D00002B14000098
S11301A02B1400002B1400002B1400002B1400004F
S11301B0212D0000212D0000212D0000212D000003
S11301C0212D0000212D0000212D0000212D0000F3
S11301D0212D0000212D0000212D0000212D0000E3
S1130400FFFFFFFFFFFFFFFFFFFFFFFFFEFFFFFFF9
S11304104FF000004FF000014FF000024FF00003D6
S11304204FF000044FF000054FF000064FF00007B6
S11304304FF000084FF000094FF0000A4FF0000B96
S11304404FF0000C62B601F07BFBFEE7DFF8DC0442
S11304500068007800280BD0DFF8D00400684078EA
S1130460002805D0DFF8C40400688078002811D182
S1130470DFF8B8040068007A00280DD0DFF8AC0477
S11304800068407A002807D0DFF8A0040068807A6A
S1130490002801D0012000E000207047DFF890041C
S11304A000684078012805D0DFF8880400684078A7
S11304B0012801D1012000E00020704780B5DFF859
S11304C078040068002811D0022809D011D3042828
S11304D009D002D305280FD010E000F06CF90FE02A
S11304E000F0A7F90CE000F09EF809E000F0B1F884
S11304F006E000F0DCF903E000F00AF900F0D7F9B7
S113050001BD30B50B2000240021002207E0DFF8F4
S11305101C341B68D35C012B00D1491C521C824241
S1130520F5DB012021E0DFF804140968415C0129AE
S11305300AD1DFF8F8130968411811F8011C0029E1
S113054002D1DFF8F8130860DFF8E0130968415CB2
S1130550012909D1DFF8D413096841184978002921
S113056002D1DFF8DC130860401C0A28DBDBDFF86B
S1130570D0030068DFF8C4130968401A022190FB15
S1130580F1F0DFF8B81309680818DFF8B813086049
S1130590DFF8B0030068DFF8B01351F82040DFF84B
S11305A0AC03006800F0F0F9DFF8A4130968611ADD
S11305B0484300F00BFA0500200000F007FADFF8CA
S11305C09413096800F02AFA290000F093FA050050
S11305D0DFF87C030068B4EB4000DFF87C130968A3
S11305E0081800F0F3F9DFF87413096800F016FA3C
S11305F0290000F07FFA00F0C7F9DFF864130860FF
S1130600DFF85403DFF8481309680160DFF840039A
S1130610DFF84C1309680160DFF844030460DFF875
S11306204003006830BD80B5002000F006FB0020C8
S113063000F003FB642000F017FB00F0B9FADFF8C8
S11306402403006B002803D0DFF81803006B8047F5
S113065001BD80B5DFF8100301210170FFF7F6FE3C
S1130660002808D0DFF8FC028068002803D0DFF8F7
S1130670F40280688047FFF711FF002806D0B948CC
S11306804068002802D0B74840688047FFF739FF28
S1130690B6490860B548006800281CD5B44842F241
S11306A028310160B2480068B0490968502202FB51
S11306B00100AF490860AE480068642802DAAC481B
S11306C064210160AA48006800F0B7FA42F22830B9
S11306D000F0A8FA1BE0A64842F228310160A448C1
S11306E00068A2490968502202FB1100A049086071
S11306F09F480068642802DA9D486421016042F240
S1130700283000F09AFA9A48006800F08BFA01BD8C
S113071080B5FFF7F6FE9549086093480021017003
S1130720FFF7BCFE002814D0002000F086FA002059
S113073000F078FA4FF47A7000F096FA8A480121B2
S113074001708848C06B002802D08648C06B80477F
S113075030E086480068002816D585484FF47A7141
S1130760016083480068814909684FF4967202FB6E
S113077001007F4908607E48006800F05EFA4FF48B
S11307807A7000F04FFA15E079484FF47A710160FD
S113079077480068754909684FF4967202FB1100A6
S11307A0734908604FF47A7000F047FA70480068A3
S11307B000F038FA01BD80B56B480078002802D0FB
S11307C06948002101706B48006805280CDA6A4802
S11307D000F033FA42F2283000F024FA6548006849
S11307E0401C6449086023E0644800F026FA41F2A2
S11307F0883000F017FAFFF751FE002818D00020C7
S113080000F01BFA002000F00DFA642000F02CFA2E
S113081049480121016054480121017055480021D3
S113082001605048406A002802D04E48406A804720
S113083001BD80B54C480078002802D04A48002108
S113084001704F48006805280CDA42F2283000F0A5
S1130850F4F9494800F0E6F949480068401C484961
S1130860086023E041F2883000F0E7F9434800F0E3
S1130870D9F9FFF713FE002818D0002000F0DDF9A5
S1130880002000F0CFF92C4801210160642000F021
S1130890EBF93548012101703948002101603148E4
S11308A08069002802D02F488069804701BD80B547
S11308B02D4801210170002000F0BFF9002000F054
S11308C0B1F9642000F0D0F901BD80B52D4A44F699
S11308D02061002000F0D2F900200AE00C22214B14
S11308E002FB0132002342F82030491C0629F5DBC3
S11308F0401C032801DA0021F8E701BD1A490978F0
S1130900002901D1002002E00B4908600120704752
S113091010B41300002B05D00C23124C03FB004031
S113092040F8212010BC70470000000090C5FF1F54
S113093094C5FF1F98C5FF1F3CC4FF1FFCC5FF1FC4
S11309404CC4FF1FF8C5FF1F302A000044C4FF1F1A
S1130950F0C5FF1F48C4FF1FF4C5FF1FE8C5FF1FF4
S1130960ECC5FF1FA0C5FF1F40C4FF1F04C6FF1F27
S113097000C6FF1F08C6FF1FD8DCFFFF78ECFFFF8F
S11309800CC6FF1FBD0400004100090E7F3915D4B9
S1130990D1F11F0114D4400007D2C00140F000403F
S11309A0C84048BF6FF000407047C00140F00040AD
S11309B0C8404CBF4FF00040404270470020704791
S11309C000424FF0004058BFC0437047002840F138
S11309D00780F446404200F003F850F000406047BE
S11309E00AD0B0FA80F18840D1F19D01C905020610
S11309F072F1004241EB1020704750F8041B61B1C2
S1130A0050F8042BD30744BFA9F101039A1800231B
S1130A1042F8043B091FFAD1EFE77047FF2212EABC
S1130A20D05C1DBF12EAD153944593422BE09C4401
S1130A30D30780EA01021A4043EA002043EA012175
S1130A40A1FB0030410038BF40007CF17F010BDB8B
S1130A50FE294ADA5B0842EAC15153EA006373F1A2
S1130A60004C51EB10207047D1F1080CDCF120014F
S1130A702FDB5B0810FA01F10B4373F1004120FAFC
S1130A800CF05041704794451CBF02EAD153934285
S1130A9080EA010202F000421DD0400019D0490052
S1130AA017D05BB9634514D00902B1FA81F39940B8
S1130AB0BCEB030CC00140F00040C1E70002B0FAF7
S1130AC080FC10FA0CF0B3EB0C0CC90141F00041AE
S1130AD0B6E71000704740000AD0490008D010F172
S1130AE0807F94BF11F1807F02E042F0FF407047A5
S1130AF0D043704790EA010F44BF81F0004100F0F9
S1130B0029B900BF421A3CBF801A89184FF0004C23
S1130B10C0F3C752FF2A24D0C1F3C75313B3D21A68
S1130B20D2F1190327DD4CEA01214CFA03F321EA3F
S1130B300303D140C20D4CEA0020401834BF20EA20
S1130B400C004CEA5000D20553EA006373EB0C0C22
S1130B5052EB1020420012F1807F38BF7047C00D65
S1130B60C0057047490212BF9A4200EB5120F8E7D2
S1130B70D2F11703D9D5704780B5354800210160FB
S1130B80344801210160002000F0EFFA3249086086
S1130B90022000F0EAFA31490860012000F0E5FA89
S1130BA02F490860032000F0E0FA2E49086001BDD7
S1130BB080B528480068D0F101002649086024481F
S1130BC0234909684942016022480068002814D07A
S1130BD0002000F0CAFA20490860022000F0C5FA9B
S1130BE01E490860012000F0C0FA1D490860032076
S1130BF000F0BBFA1B49086013E0032000F0B5FACB
S1130C0015490860002000F0B0FA16490860022077
S1130C1000F0ABFA11490860012000F0A6FA10496F
S1130C20086001BD80B50B490968002902D000F0B5
S1130C30E5FA01E000F0CAFA01BD80B5054909688A
S1130C40002902D000F0C2FA01E000F0D7FA01BD99
S1130C508CC5FF1F38C4FF1F90C5FF1F94C5FF1F1D
S1130C6098C5FF1F9CC5FF1F80B244F6206148430E
S1130C700100481E0029FBD17047000070B5040034
S1130C800E001500E4B2042C03D348212A4800F0D6
S1130C90D1FA2A4800684FF47A7190FBF1F0464388
S1130CA0002E03D14E21244800F0C4FA24480068E1
S1130CB050F4000022490860224800210160280005
S1130CC0002808D0E4B2204840F82450E4B214F1DB
S1130CD0440000F0C6FAE4B220011C49721E4250DE
S1130CE0E4B21A4810EB041002218160E4B2174800
S1130CF010EB0410806850F00100E4B2134911EBCA
S1130D0004118860012070BD10B511480078B0F15D
S1130D105404E4B20C4850F824008047E4B20B4871
S1130D2010EB0410C06850F00100E4B2074911EB65
S1130D300411C86010BD0000882A0000F0C6FF1F1F
S1130D403C8004400070034064C5FF1F00710340F1
S1130D5004ED00E0431A4FF000423EBF5340C01A76
S1130D60C91800BFD3095FEAD05C13EB400F34BF4E
S1130D70B3EB410F40E07CEBD1530CD342EA0121A9
S1130D8022D8D1EB402009D3400A28BF5FEA5001A2
S1130D9040EBCC507047401A15D04002B0FA80F2B4
S1130DA0521C9040400A4FEA3C23B3EB026384BFD9
S1130DB000EB730007E040F400001A16DB07C2F1F1
S1130DC00102D04018437047182BFCDC31FA03F2BF
S1130DD002FA03F3591A38BF42F00102D2EB402061
S1130DE03CBF4000ACF1010C5FEACC5CC20572F17F
S1130DF000414CEB5020704713EB400F0FD24B00D7
S1130E0009D0ACEBD153022B03DB4902172BDDDDF8
S1130E1070479143401A4300D5D10020704713EB2B
S1130E20410FD0D36FF000007047000080B5002060
S1130E300090012300220921012000F06BFA002018
S1130E400090012300220A21012000F063FA00200F
S1130E500090012300220B21012000F05BFA002006
S1130E600090012300221221012000F053FA0020F7
S1130E700090012300221321012000F04BFA0020EE
S1130E800090012300221421012000F043FA0020E5
S1130E900090012300221521012000F03BFA0020DC
S1130EA00090012300221621012000F033FA0020D3
S1130EB00090012300220621022000F02BFA0020DA
S1130EC00090012300220721022000F023FA0020D1
S1130ED00090012300220821022000F01BFA0020C8
S1130EE00090012300220021012000F013FA0020C9
S1130EF00090012300220521002000F00BFA0020BD
S1130F000090012300220C21002000F003FA0020AD
S1130F100090012300220D21002000F0FBF90020A5
S1130F200090012300220E21002000F0F3F900209C
S1130F300090012300221021002000F0EBF9002092
S1130F400090012300221121002000F0E3F9002089
S1130F500090012300220021032000F0DBF900208F
S1130F600090012300220121032000F0D3F9002086
S1130F700090012300220221032000F0CBF900207D
S1130F800090012300220321032000F0C3F9002074
S1130F900090012300220421032000F0BBF900206B
S1130FA00090012300221821042000F0B3F900204E
S1130FB00090012300221921042000F0ABF9002045
S1130FC00090012300221A21042000F0A3F900203C
S1130FD00090012300220921022000F09BF9002047
S1130FE00090012300220C21022000F093F900203C
S1130FF00090012300220D21022000F08BF90FF252
S1131000110241F288310120FFF738FE01BD0000D2
S113101080B50921012000F0FFF95D4908700A211B
S1131020012000F0F9F95A4948700B21012000F021
S1131030F3F9574988701221012000F0EDF9544961
S1131040C8701321012000F0E7F9514908711421F7
S1131050012000F0E1F94E4948711521012000F00A
S1131060DBF94B4988711621012000F0D5F9484974
S1131070C8710621022000F0CFF945490872072102
S1131080022000F0C9F9424948720821022000F008
S1131090C3F93F4988723E48002141700021032072
S11310A000F0BAF93B4908700521002000F0B4F9BA
S11310B0384948700C21002000F0AEF93549887099
S11310C00D21002000F0A8F93249C8700E2100203B
S11310D000F0A2F92F4908711021002000F09CF9BA
S11310E02C4948711121002000F096F92949887192
S11310F00421042000F090F92649C871022104203B
S113110000F08AF9234908720121042000F084F9CF
S1131110204948720021042000F07EF91D4988729C
S11311201821042000F078F91B49087019210420C3
S113113000F072F9184948701A21042000F06CF983
S1131140154988700D21022000F066F913490870D2
S11311500C21022000F060F9104948700921022096
S113116000F05AF90D49887001BD002805D0022805
S113117007D004D3032806D007E0054806E0074853
S113118004E0054802E0034800E000207047000046
S113119010C6FF1F1CC6FF1F28C6FF1F2CC6FF1F3B
S11311A080B542F2107000F061F90021042000F0D3
S11311B0E6F90021052000F0E2F90021072000F003
S11311C0DEF90021062000F0DAF901BD10B50400B3
S11311D016480460002C08D42100042000F01CFAF6
S11311E00021052000F018FA07E00021042000F097
S11311F013FA6142052000F00FFA10BD10B5040087
S11312000B480460002C08D42100072000F004FAE5
S11312100021062000F000FA07E00021072000F07A
S1131220FBF96142062000F0F7F910BD30C6FF1F3C
S113123034C6FF1F0A000100064800F061FC06489E
S113124000E0401E0028FCD103480028F7D0401ECF
S1131250FBE700BF282B0000A08601002549086099
S1131260704710B504005C2C02DB234800F048FCF6
S1131270202094FBF0F0002803D0022827D013D3B9
S113128037E00120202194FBF1F202FB114290404F
S11312901A4908600120202194FBF1F202FB11425B
S11312A090401749086024E00120202194FBF1F2CA
S11312B002FB11429040134908600120202194FB55
S11312C0F1F202FB114290400F49086011E0012045
S11312D0202194FBF1F202FB114290400B4908607B
S11312E00120202194FBF1F202FB114290400849B5
S11312F0086010BD08ED00E09C29000080E200E0D9
S113130000E100E084E200E004E100E088E200E0C3
S113131008E100E02DE9F8430D0016001F00C0B2FB
S11313204C4951F82080C0B24B4951F82090C0B2CA
S1131330052803D363214948FFF77CFFEDB2202D34
S113134003D364214548FFF775FFF6B2022E03D399
S113135065214248FFF76EFFFFB2022F03D36621D7
S11313603E48FFF767FF089CE4B20D2C03D36721C6
S11313703A48FFF75FFFEDB24FF4807049F825005B
S1131380F6B2012E13D1D8F814000121A940084364
S1131390C8F81400FFB2012F04D10120A840C8F8F6
S11313A0040036E00120A840C8F8080031E0D8F86D
S11313B014000121A9408843C8F81400EDB259F87B
S11313C02500E4B2210411F470210843EDB249F878
S11313D02500FFB2012F08D1EDB259F8250050F0D5
S11313E00300EDB249F8250013E0FFB2002F08D145
S11313F0EDB259F8250050F00200EDB249F825008D
S113140007E0EDB259F8250030F00200EDB249F8DA
S113141025000120BDE8F283C0B20E4A52F8200034
S11314200069C84010F00100704710B50D480078FD
S1131430B0F16704E4B20A4850F8240080470A482F
S113144050FA84F000035FF0FF31C0F8A01010BD23
S11314500000000010C4FF1F24C4FF1F042A000062
S11314604CC5FF1F04ED00E04900040010B4DFF890
S1131470E01109684FF47A725143814201D200208D
S11314807BE0802202FB00F2B1FBF2F34FF6FF7225
S1131490934271D20722DFF8C0412360402303FB4B
S11314A000F3B1FBF3F34FF6FF74A34244D20622D8
S11314B0DFF8A44123604301B1FBF3F34FF6FF745B
S11314C0A34239D20522DFF8904123600301B1FB26
S11314D0F3F34FF6FF74A3422ED20422DFF87841CF
S11314E02360C300B1FBF3F34FF6FF74A34223D28E
S11314F00322DFF8644123608300B1FBF3F34FF66A
S1131500FF74A34218D20222DFF84C412360430047
S1131510B1FBF3F34FF6FF74A3420DD20122DFF8BF
S113152038412360B1FBF0F34FF6FF70834203D2DE
S11315300022DFF824010360DFF81801006850F08E
S11315408070DFF810110860D2B212F0070050F07A
S11315500800DFF808110860DFF8040100210160C9
S1131560DFF8000100210160DFF8FC00DFF8E8107B
S113157009680160012000E0002010BC704781B0C0
S113158042F21172914201D3002031E0DFF8C82009
S113159012680092009A521C514342F21072B1FB3D
S11315A0F2F1C0B20200002A032A03D9121F032A4F
S11315B020D92FE0DFF8B420126852F40062DFF87B
S11315C0AC301A60C0B2820002F1804212F5962259
S11315D04FF480635360C0B2DFF89420282342F8AC
S11315E03030C0B2DFF8882012EBC0004160012027
S11315F001B07047DFF87420126852F48052DFF8AB
S11316006C301A60C0B2DFF86C204FF4806342F88B
S11316102030E0E70020EBE781B042F21172914202
S113162001D3002011E0DFF8302012680092009A04
S1131630521C514342F21072B1FBF2F1C0B2DFF816
S1131640302012EBC0004160012001B0704700005F
S1131650F0C6FF1F3C80044048C5FF1F00800340C4
S1131660048003404C8003400880034038800440D9
S11316700C80034000C0044010B50C00116801291F
S113168002D0022904D009E0C0B25168884705E0BD
S1131690916808709068401C9060FFE72068401CC7
S11316A0206010BD30B41C00002300250570401CD0
S11316B0002A19D0096800290AD1302101705B1C65
S11316C0180030BC7047303511000570401C5B1C9D
S11316D00029F5D091FBF4F204FB1215002DF2D58C
S11316E0E94311F13105EFE70968002908D13021F8
S11316F001705B1CE4E7373511000570401C5B1C6E
S11317000029DDD0B1FBF4F204FB12150A2DF2D24C
S11317103035F1E7F8B504000D0016001F0005E0B0
S11317203A0031003020FFF7A7FF641CAC42F7DB1E
S1131730F1BDF8B504000D0016001F0005E03A00E5
S113174031002020FFF798FF641CAC42F7DBF1BDA9
S11317502DE9F04F8DB005001600002000900C001C
S113176005E02A0000A91800FFF786FF641C23780F
S1131770002B00F0C181252B12D00A2B05D02A00A2
S113178000A91800FFF778FF09E02A0000A90D203E
S1131790FFF772FF2A0000A90A20FFF76DFFE5E7B3
S11317A00027002101E057F0010700291BD1641C28
S11317B0207820280BD023280FD02B2804D02D28C4
S11317C0F1D0302806D00BE057F00207EDE757F0D0
S11317D00407EAE757F00807E7E757F01007E4E7DC
S11317E0641E0121E1E75FF00008002104E00A2003
S11317F000FB0830B0F13008002908D1641C2378BC
S1131800180030380928F2D9641E0121F4E7641C59
S113181020782E280BD10021FFE7002908D1641C71
S1131820207830380928F8D9641E0121F5E7641EB0
S1131830641C20784C2806D0682802D06C2801D07B
S113184002E002E001E000E0641E641C237818005A
S1131850582874D0622800F0D080632800F01881E2
S1131860642813D0692811D06E2800F040816F28B5
S113187000F0B880702800F0CB80732800F00F814E
S1131880752800F0D080782859D06AE73068039032
S1131890361D0A23012203A904A8FFF703FF824689
S11318A004A81AEB00090398002804D52D200290FF
S11318B01AF1010A0FE0B80704D52B2002901AF19F
S11318C0010A08E0780704D5202002901AF1010AE1
S11318D001E0002002905FF0000B380711D5029858
S11318E0002804D02A0000A90298FFF7C5FE5FF083
S11318F0010B2B0000AA41465046FFF70BFFC246DE
S113190011E0F8070FD42B0000AA41465046FFF718
S113191010FF0298002804D02A0000A90298FFF7BB
S1131920ABFE5FF0010BBBF1000F07D1029800285A
S113193004D02A0000A90298FFF79EFE9BE03068BD
S11319400190361D1023002201A904A8FFF7AAFE66
S1131950824604A81AEB00095FF0000B380715D57E
S1131960F8060BD52A0000A93020FFF785FE2A00CF
S113197000A97820FFF780FE5FF0010B2B0000AA7E
S113198041465046FFF7C6FEC24619E0F80717D491
S1131990F80601D51AF1020A2B0000AA4146504666
S11319A0FFF7C7FEF8060BD52A0000A93020FFF781
S11319B063FE2A0000A97820FFF75EFE5FF0010BAA
S11319C0F8060ED5BBF1000F0BD12A0000A9302078
S11319D0FFF752FE2A0000A97820FFF74DFE1AF106
S11319E0020A48E030680190361D0823002201A94C
S11319F004A8FFF757FE82461FE030680190361DA9
S1131A000223002201A904A8FFF74CFE824614E039
S1131A1030680190361D1023002201A904A8FFF7A5
S1131A2041FE824609E030680190361D0A230022F7
S1131A3001A904A8FFF736FE824604A81AEB0009A0
S1131A40380707D52B0000AA41465046FFF762FE2F
S1131A50C24610E0F8070ED42B0000AA41465046B7
S1131A60FFF767FE07E02A0000A999F80000FFF7D6
S1131A7003FEB9F1010999F800000028F3D1F80731
S1131A8005D52B0000AA41465046FFF752FE6DE6ED
S1131A903078361D2A0000A9FFF7EEFD66E6D6F879
S1131AA00090361DB9F1000F20D0484600F03AF8F6
S1131AB08246F8070ED42B0000AA41465046FFF791
S1131AC038FE07E02A0000A999F80000FFF7D4FDCA
S1131AD019F1010999F800000028F3D1F80705D598
S1131AE02B0000AA41465046FFF723FE3EE630682D
S1131AF0361D0099016039E600980DB0BDE8F08FFD
S1131B000EB400B584B0012100910549019105AAE4
S1131B10010000A8FFF71CFE04B05DF810FB0000F4
S1131B20412E00000021002802D1002006E0491CBB
S1131B300200501C1278002AF9D1080070470000F6
S1131B4000F030FA00F04AFA00F096FADFF8500399
S1131B500078400703D5DFF84C03FFF7D1FFDFF827
S1131B6040030078800703D5DFF83C03FFF7C8FF84
S1131B70DFF82C030078C00703D5DFF83003FFF744
S1131B80BFFFDFF82C030078000603D5DFF8240339
S1131B90FFF7B6FFDFF818030078400603D5DFF837
S1131BA01803FFF7ADFFDFF808030078800603D5BC
S1131BB0DFF80803FFF7A4FFDFF8F402007840071A
S1131BC003D5DFF8FC02FFF79BFFDFF8E40200789F
S1131BD0800703D5DFF8EC02FFF792FFDFF8D002AD
S1131BE00078C00703D5DFF8E002FFF789FF00F0B3
S1131BF003F800F0BBFAFEE780B5DFF8D002006816
S1131C00000910F0070000280BD0022811D00CD3D3
S1131C10042816D011D306281BD016D307281CD0AD
S1131C201FE0AB48FFF76CFF1EE0AA48FFF768FF10
S1131C301AE0A948FFF764FF16E0A848FFF760FF21
S1131C4012E0A748FFF75CFF0EE0A648FFF758FF35
S1131C500AE0A548FFF754FF06E0A448FFF750FF49
S1131C6002E0A348FFF74CFF9848006810F00F000B
S1131C70022812D0042814D0052816D0062818D01B
S1131C8007281AD008281CD009281ED00A2820D0DA
S1131C900C2822D00E2824D027E09648FFF730FFE6
S1131CA026E09548FFF72CFF22E09448FFF728FF31
S1131CB01EE09348FFF724FF1AE09248FFF720FF45
S1131CC016E09148FFF71CFF12E09048FFF718FF59
S1131CD00EE08F48FFF714FF0AE08E48FFF710FF6D
S1131CE006E08D48FFF70CFF02E08C48FFF708FF81
S1131CF076480068000B10F00F00002803D002287B
S1131D0009D004D30BE08648FFF7FAFE0AE08548C1
S1131D10FFF7F6FE06E08448FFF7F2FE02E0834890
S1131D20FFF7EEFE00F06AF881480068000E10F03C
S1131D300F00072806D0092808D00B280AD00F283E
S1131D400CD00FE07B48FFF7DBFE0EE07A48FFF78C
S1131D50D7FE0AE07948FFF7D3FE06E07748FFF79D
S1131D60CFFE02E07648FFF7CBFE7648006800021B
S1131D7003D57548FFF7C4FE1EE06D480068000FE8
S1131D80002806D0072808D009280AD00F280CD02C
S1131D900FE06E48FFF7B4FE0EE06D48FFF7B0FEAB
S1131DA00AE06C48FFF7ACFE06E06A48FFF7A8FEBD
S1131DB002E06948FFF7A4FE68480068000B10F0D1
S1131DC00F00052806D0072808D008280AD00928BB
S1131DD00CD00FE06248FFF793FE0EE06148FFF776
S1131DE08FFE0AE06048FFF78BFE06E05F48FFF7CE
S1131DF087FE02E05E48FFF783FE01BD80B55D48C3
S1131E00032101705C48002101705C4800210170CD
S1131E105B48002101705B48012101705A48802110
S1131E200170594800780006FBD558480178584895
S1131E3002785848037858480078C0B20090DBB262
S1131E40D2B2C9B25548FFF75BFE4A48032101707C
S1131E504948002101704948002101704848042183
S1131E6001704848012101704748802101704648AB
S1131E7000780006FBD54548017845480278454876
S1131E80037845480078C0B20090DBB2D2B2C9B240
S1131E904348FFF735FE3C48FF21017001BD0000B7
S1131EA000E00740782D0000DC2B0000542E0000D9
S1131EB001E007408C2D0000302C0000482C00006D
S1131EC0602C0000F82B0000642E000024800440E5
S1131ED0302F0000382F0000402F0000482F000052
S1131EE0502F0000582F0000602F0000682F0000C2
S1131EF0B02A0000742E0000842E0000942E0000EE
S1131F00A42E0000B42E0000C42E0000D42E000025
S1131F10E42E0000F42E0000042F00005C2A0000D0
S1131F20782C0000A02D0000B42D00005C290000D6
S1131F304C800440902C0000A82C0000C02C000011
S1131F405C2B000050800440142F0000D82C0000AB
S1131F50F02C0000082D00007C2B000000700440D1
S1131F60C82D0000DC2D0000F02D0000042E000020
S1131F70142C000007000240060002400500024045
S1131F80040002400F000240000002400B00024027
S1131F900A0002400900024008000240D82A00005A
S1131FA09C2B000080B500F009F80A4800884FF621
S1131FB0FE7108400749088001BD000072B606485A
S1131FC04CF22051018004484DF62811018062B67C
S1131FD070470000002005400E20054080B51C48D5
S1131FE01C4988420BD0002006E01949194A52F8CE
S1131FF0202041F82020401CB0F5826FF5D314480E
S1132000FFF72CF91449154A1548801A03E0137890
S11320100B70521C491C0300581E002BF7D11149A8
S11320201148401A02E000220A70491C0200501EA6
S1132030002AF8D10D490E4A0E48801A03E013789D
S11320400B70521C491C0300581E002BF7D101BD14
S11320500080FF1F0000000010C4FF1FDC270000E9
S1132060C828000048C5FF1FF4C6FF1FFCC4FF1F9B
S1132070C82800001429000080B52848006850F4DE
S1132080785026490860642000F078F824490860F4
S1132090234800684FF47A71484322490860214874
S11320A0006821490968C1F30361491CB0FBF1F0E0
S11320B01E49086000F01CF800F025F81C484FF495
S11320C0407101601B484FF4407101605FF4E132DC
S11320D016480168184800F067F911480168174864
S11320E0FFF70EFD114801681548FFF709FD01BD12
S11320F01448006850F480501249086012484FF4A4
S1132100E061016070471148006850F001000F4918
S113211008600F484FF4A0610160704738800440A4
S1132120ECC6FF1FE8C6FF1F44800440F0C6FF1F33
S113213020D0044024D0044000B00E40182E0000EB
S11321402C2E000004800440189004404080044079
S11321500CB0044080B5FEF769FEFFF721F8FEF7E6
S11321600BFD00F0FCFAFEF7B0FB01BDFFF7F2FF38
S1132170FEE70000DFF800F0FDC4FF1F10B5C0B299
S11321806F2851D21822814B00241C70804B1B688D
S113219053F080537E4C23607E4B1B7853F08003B6
S11321A07C4C23707C4B98241C707C4B1B78DB0686
S11321B0FBD47A4B1B78C3F38103DBB2022BF8D137
S11321C012F01F02764B1A70764A00231370C0B2C5
S11321D03C281ED0462833D050283CD05A2845D01D
S11321E060284ED0642857D06E2860D0782869D0F3
S11321F0822872D096287BD0AA2800F08480B42844
S113220000F08C80C82800F09480D12800F09C80D5
S1132210A4E00223012201210020FFF7ABFF614863
S1132220462101703C2199E0C0B2C92801D20C2298
S1132230A9E7C0B2DD2801D20B22A4E70020A4E064
S11322400223012201210020FFF794FF55484B216E
S11322500170462182E00323012201210020FFF7BF
S113226089FF504850210170502177E00323012257
S113227001210020FFF77EFF4A48552101705A21B1
S11322806CE00323012201210020FFF773FF45487E
S113229058210170602161E0032301220121002003
S11322A0FFF768FF3F485A210170642156E0042378
S11322B0022202210020FFF75DFF3A485F210170EE
S11322C06E214BE00423022202210020FFF752FF7B
S11322D0344847210170782140E00523022202217D
S11322E00020FFF747FF2F484A210170822135E083
S11322F00523022202210020FFF73CFF29484F2139
S1132300017096212AE00623032203210020FFF70F
S113231031FF244854210170AA211FE0072303221E
S113232003210020FFF726FF1E4857210170B42126
S113233014E00723032203210020FFF71BFF1948A1
S11323405C210170C82109E0082304220421002033
S1132350FFF710FF13485A210170D1210F4800786C
S11323608006FBD50D4800784006FBD50A48007866
S113237010F03F00084A107008480078C0F381004C
S1132380C0B20328F8D10800C0B210BD0140064015
S11323903480044008C00740004006400640064020
S11323A0044006400540064030B4324B984206D102
S11323B0314B1B6853F480632F4C23602DE02F4B6B
S11323C0984206D12C4B1B6853F400632A4C2360BB
S11323D023E02B4B984206D1274B1B6853F48053C0
S11323E0254C236019E0274B984206D1224B1B68E9
S11323F053F40053204C23600FE0234B984206D142
S1132400224B1B6853F48063204C236005E01F4B70
S11324101B6853F400631D4C2360C37813F0F3036B
S1132420C370002383704FF47A7303FB01F3140128
S113243093FBF4F3047814F0E0049BB21D0A15F046
S11324401F052C43047043704FF4FA446143120196
S113245091FBF2F19BB2B1EB4311827A12F0E004EA
S113246011F01F0121438172C17851F00C01C17038
S113247030BC704700A006403480044000B00640E1
S113248000C0064000D0064000A00E402880044052
S113249002791206FCD5C17170470000B0F1170132
S11324A0491E092901D21738FFE7704780B5DFF8C4
S11324B0F0020068FFF7F2FFDFF8E8120968DFF8BE
S11324C0E82212EB001252F82110012929DBDFF86F
S11324D0D4120968DFF8D02212EB001050F8210062
S11324E0DFF8C8120860AE48DFF8C012096801605E
S11324F0AF480068401CAE490860AD480068401C05
S1132500AC490968884208DAA9480068AA4911EB6D
S113251080004068A949086003E0A848A349096805
S1132520016001BD032823D1A04909681B2903D0F8
S11325309E4909681E2909D19A490968C91C0422BF
S113254091FBF2F303FB121396490B609749096858
S11325501C2903D0954909681D2909D191490968A5
S1132560491C042291FBF2F303FB12138D490B6007
S1132570022823D18D4909681B2903D08B49096896
S11325801E2909D187490968491C042291FBF2F3E9
S113259003FB121383490B60844909681C2903D087
S11325A0824909681D2909D17E490968C91C042288
S11325B091FBF2F303FB12137A490B60042809D14F
S11325C078480068801C042190FBF1F202FB1102A0
S11325D074480260704780B5784800687349096898
S11325E0884201D101206BE070480068FFF756FF74
S11325F0724909686B4A12686B4B13EB001353F86A
S11326002220914201D100205AE0002100E0491C1F
S1132610042955DA644A12EB001252F82120674B60
S11326201B689A42F3D15F4A12688A1A521E0ED06E
S1132630521E0AD0521E27D07FF00503D21A06D0AC
S1132640521E02D0521E1FD0E1E7042038E0574A40
S113265012681C2A03D0554A12681D2A01D103208E
S11326602EE0524A12681F2A0BD0504A1268202AC0
S113267007D04E4A12681B2A03D04C4A12681E2AFD
S113268001D102201CE0C2E7484A12681C2A03D088
S1132690464A12681D2A01D1022011E0434A1268F9
S11326A01F2A0BD0414A1268202A07D03F4A1268D9
S11326B01B2A03D03D4A12681E2AA8D10320FFE733
S11326C002BD80B50220FFF72DFFFFF784FF3C49D0
S11326D008603B480068FEF711F901BD80B503208E
S11326E0FFF720FFFFF777FF35490860344800689B
S11326F0FEF704F901BD80B50420FFF713FFFFF7CF
S11327006AFF2F4908602E480068FEF7F7F801BDFC
S113271080B5FFF7CBFEFFF75EFF29490860284824
S11327200068FEF7EBF801BD80B5FFF7BFFEFFF7C9
S113273052FF2349086022480068FEF7DFF801BD14
S113274080B5FFF7B3FEFFF746FF1D4908601C483C
S11327500068002802D00520FEF7D0F801BD80B53E
S1132760184A01210020FEF7D3F8174A022100205D
S1132770FEF7CEF8154A00210520FEF7C9F8144AE1
S113278000210220FEF7C4F8124A00210320FEF7BC
S1132790BFF8114A00210420FEF7BAF801BD000079
S11327A050C4FF1F38C6FF1F5CC4FF1F54C4FF1F63
S11327B0E0C6FF1FDCC6FF1F3CC6FF1F58C4FF1F37
S11327C0E4C6FF1F2927000041270000112700004D
S11327D0C3260000DD260000F726000000F00F40AD
S11327E040F00F4080F00F40C0F00F4000F10F4068
S11327F00090044000A0044000B0044000C0044025
S113280000D00440010000000100000001000000AD
S11328100000A040000020400B0000001700000052
S113282017000000170000001B000000FFFFFFFF5F
S1132830FFFFFFFFFFFFFFFFFFFFFFFFFFFFFFFFA4
S11328401C000000FFFFFFFFFFFFFFFFFFFFFFFF74
S11328501D000000FFFFFFFF1E000000FFFFFFFF41
S1132860FFFFFFFFFFFFFFFF200000001E0000002E
S11328701700000019000000180000001B000000F1
S1132880200000001D000000190000001C000000D2
S11328901F0000001E0000001F0000001D000000BB
S11328A01A0000001B0000001D000000FFFFFFFFD6
S11328B01E000000200000001C0000001F0000009B
S11328C01B000000FFFFFFFF70B4104C24680F4D85
S11328D02D6855F47F050D4E3560090611F07061C1
S11328E051EA0070110511F470010843190411F440
S11328F07021084306490860002000E0401CC0B273
S11329009842FBD30148046070BC704700F001405A
S11329104480044080B50E480078C0B23D3802219E
S113292090FBF1F00B4951FA80F10903C0B204287D
S113293003D3094951FA80F109030979890604D5B9
S1132940C0B2024951F82000804701BD74C5FF1F81
S113295004ED00E06A000400E60004000A5468691B
S1132960732076657273696F6E206F6620736F666D
S1132970747761726520646F65736E277420726565
S1132980636F676E697A652074686520726576691D
S113299073696F6E20636F64652E00000A4552529E
S11329A02120496E76616C69642049525120766118
S11329B06C75652070617373656420746F20656E37
S11329C061626C65206972712066756E6374696FEB
S11329D06E210A000A2A2A2A2A64656661756C74C3
S11329E05F69737220656E7465726564206F6E2012
S11329F0766563746F722025642A2A2A2A2A0D0AAE
S1132A000A000000463A5C726F626F74205F696E60
S1132A1069745C726F626F745C6C69625C4C504C7C
S1132A20445C48414C5F4750494F2E63000000000E
S1132A3018FCFFFFD4FEFFFF6AFFFFFFC4FFFFFF88
S1132A40CEFFFFFF00000000320000003C00000049
S1132A50640000002C010000E80300000A556E72B7
S1132A6065636F676E697A6564204B696E65746926
S1132A7073207061636B61676520636F64652E20EA
S1132A8020202020200A0000463A5C726F626F7496
S1132A90205F696E69745C726F626F745C6C6962EA
S1132AA05C4C504C445C48414C5F5049542E63008C
S1132AB00A556E7265636F676E697A6564204B6947
S1132AC06E657469732066616D696C7920646576DE
S1132AD06963652E0A000000466C617368207061AA
S1132AE072616D657465722076657273696F6E20AC
S1132AF025642E25642E25642E25640A000000001A
S1132B0010B5074979441831064C7C44163404E066
S1132B10081D0A68511888470146A142F8D110BD22
S1132B202C00000038000000417373657274696FF3
S1132B306E206661696C656420696E20257320616E
S1132B4074206C696E652025640A0000AFDEFFFF07
S1132B50AC01000048C5FF1F00000000455252218F
S1132B602120556E646566696E656420502D666C1F
S1132B706173682073697A650A0000004552522126
S1132B802120556E646566696E656420466C6578BF
S1132B904E564D2073697A650A000000466C6173D5
S1132BA0682076657273696F6E2049442025642E0F
S1132BB025642E25642E25640A00000080B505488E
S1132BC0006850F0800003490860034800688047AB
S1132BD001BD00000000044060C5FF1F436F726523
S1132BE0204C6F636B7570204576656E742052655A
S1132BF07365740D0A0000004C6F772D766F6C744A
S1132C0061676520446574656374205265736574F7
S1132C100D0A0000455252212120556E64656669F3
S1132C206E65642052414D2073697A650A0A00007A
S1132C3045787465726E616C2050696E20526573BC
S1132C4065740D0A000000005761746368646F675F
S1132C5028434F50292052657365740D0A00000003
S1132C604C6F7373206F6620436C6F636B205265E7
S1132C707365740D0A00000053696C69636F6E20FC
S1132C8072657620312E302020200A2000000000BA
S1132C90313238206B4279746573206F6620502D71
S1132CA0666C617368090A00323536206B427974A8
S1132CB06573206F6620502D666C617368090A0085
S1132CC0353132206B4279746573206F6620502D44
S1132CD0666C617368090A0030206B42797465730D
S1132CE0206F6620466C65784E564D0A0000000041
S1132CF0313238206B4279746573206F6620466CDC
S1132D0065784E564D0A0000323536206B42797490
S1132D106573206F6620466C65784E564D0A000038
S1132D2080B503480178C9B20248FEF7E9FE01BD47
S1132D3004ED00E0D429000000F009F8002801D0D7
S1132D40FFF7DEFE0020FFF711FA00F002F8012081
S1132D50704700F001B800000746384600F002F85A
S1132D60FBE70000C046C046024A11001820ABBE73
S1132D70FBE700BF26000200536F6674776172653B
S1132D802052657365740D0A00000000506F77656A
S1132D90722D6F6E2052657365740D0A0000000079
S1132DA053696C69636F6E2072657620312E312011
S1132DB0200A200053696C69636F6E207265762067
S1132DC0312E3220200A20003332206B4279746580
S1132DD073206F662052414D0A0A00003634206B7E
S1132DE04279746573206F662052414D0A0A0000CF
S1132DF03936206B4279746573206F662052414DD9
S1132E000A0A0000313238206B4279746573206FEE
S1132E10662052414D0A0A00436F726520436C6F6D
S1132E20636B3A25644D487A210D0A00427573207C
S1132E30436C6F636B3A25646B487A210D0A00007A
S1132E4080B50100C9B20248FFF722FB01BD0000B2
S1132E5000B00E404A5441472052657365740D0A10
S1132E60000000004C4C57552052657365740D0AE0
S1132E7000000000333270696E20202020202020C2
S1132E800A000000343870696E20202020202020A1
S1132E900A000000363470696E2020202020202093
S1132EA00A000000383070696E2020202020202085
S1132EB00A000000383170696E2020202020202074
S1132EC00A00000031303070696E2020202020205C
S1132ED00A00000031303470696E20202020202048
S1132EE00A00000031343470696E20202020202034
S1132EF00A00000031393670696E2020202020201D
S1132F000A00000032353670696E2020202020200F
S1132F100A000000502D666C617368206F6E6C7936
S1132F200A000000C046C046C046C046FFF704FF82
S1132F300A4B31302D0000000A4B32302D000000C6
S1132F400A4B33302D0000000A4B34302D000000B2
S1132F500A4B36302D0000000A4B37302D0000009C
S1132F600A4B35302D0000000A4B35332D0000008C
S9032F25A8
