S01900004C504C445F54656D706C6174655F4B36302E7372656334
S3151FFF8000F87F00201184FF1FF1A5FF1FF1A5FF1F9A
S3151FFF8010F1A5FF1FF1A5FF1FF1A5FF1FF1A5FF1F6C
S3151FFF8020F1A5FF1FF1A5FF1FF1A5FF1FF1A5FF1F5C
S3151FFF8030F1A5FF1FF1A5FF1FF1A5FF1FF1A5FF1F4C
S3151FFF8040F1A5FF1FF1A5FF1FF1A5FF1FF1A5FF1F3C
S3151FFF8050F1A5FF1FF1A5FF1FF1A5FF1FF1A5FF1F2C
S3151FFF8060F1A5FF1FF1A5FF1FF1A5FF1FF1A5FF1F1C
S3151FFF8070F1A5FF1FF1A5FF1FF1A5FF1FF1A5FF1F0C
S3151FFF8080F1A5FF1FF1A5FF1FF1A5FF1FF1A5FF1FFC
S3151FFF8090F1A5FF1FF1A5FF1FF1A5FF1FF1A5FF1FEC
S3151FFF80A0F1A5FF1FF1A5FF1FF1A5FF1FF1A5FF1FDC
S3151FFF80B0F1A5FF1FF1A5FF1FF1A5FF1FF1A5FF1FCC
S3151FFF80C0F1A5FF1FF1A5FF1FF1A5FF1FF1A5FF1FBC
S3151FFF80D0F1A5FF1FF1A5FF1FF1A5FF1FF1A5FF1FAC
S3151FFF80E0F1A5FF1FF1A5FF1FF1A5FF1FF1A5FF1F9C
S3151FFF80F0F1A5FF1F7F9AFF1FF1A5FF1F7F9AFF1F86
S3151FFF8100F1A5FF1F7F9AFF1FF1A5FF1F7F9AFF1F75
S3151FFF8110F1A5FF1F7F9AFF1FF1A5FF1F7F9AFF1F65
S3151FFF8120F1A5FF1FF1A5FF1FF1A5FF1FF1A5FF1F5B
S3151FFF8130F1A5FF1FF1A5FF1FF1A5FF1FF1A5FF1F4B
S3151FFF8140F1A5FF1FF1A5FF1FF1A5FF1FF1A5FF1F3B
S3151FFF81509998FF1F9998FF1F9998FF1F9998FF1FBF
S3151FFF8160F1A5FF1FF1A5FF1FF1A5FF1FF1A5FF1F1B
S3151FFF8170F1A5FF1FF1A5FF1FF1A5FF1FF1A5FF1F0B
S3151FFF8180F1A5FF1FF1A5FF1FF1A5FF1FF1A5FF1FFB
S3151FFF8190F1A5FF1F8DA4FF1FF1A5FF1F079FFF1F40
S3151FFF81A0079FFF1F079FFF1F079FFF1F079FFF1F9B
S3151FFF81B0F1A5FF1FF1A5FF1FF1A5FF1FF1A5FF1FCB
S3151FFF81C0F1A5FF1FF1A5FF1FF1A5FF1FF1A5FF1FBB
S3151FFF81D0F1A5FF1FF1A5FF1FF1A5FF1FF1A5FF1FAB
S3151FFF8400FFFFFFFFFFFFFFFFFFFFFFFFFEFFFFFF59
S3151FFF84104FF000004FF000014FF000024FF0000336
S3151FFF84204FF000044FF000054FF000064FF0000716
S3151FFF84304FF000084FF000094FF0000A4FF0000BF6
S3151FFF84404FF0000C62B600F081FAFEE710B50C0084
S3151FFF84501168012902D0022904D009E0C0B2516870
S3151FFF8460884705E0916808709068401C9060FFE799
S3151FFF84702068401C206010BD30B41C00002300255F
S3151FFF84800570401C002A19D0096800290AD130211E
S3151FFF849001705B1C180030BC70473035110005702A
S3151FFF84A0401C5B1C0029F5D091FBF4F204FB12154F
S3151FFF84B0002DF2D5E94311F13105EFE709680029D0
S3151FFF84C008D1302101705B1CE4E7373511000570B9
S3151FFF84D0401C5B1C0029DDD0B1FBF4F204FB121517
S3151FFF84E00A2DF2D23035F1E7F8B504000D0016005C
S3151FFF84F01F0005E03A0031003020FFF7A7FF641C7D
S3151FFF8500AC42F7DBF1BDF8B504000D0016001F00E6
S3151FFF851005E03A0031002020FFF798FF641CAC42AC
S3151FFF8520F7DBF1BD2DE9F04F8DB0050016000020DA
S3151FFF853000900C0005E02A0000A91800FFF786FF30
S3151FFF8540641C2378002B00F0CE81252B12D00A2B1B
S3151FFF855005D02A0000A91800FFF778FF09E02A00B7
S3151FFF856000A90D20FFF772FF2A0000A90A20FFF7B7
S3151FFF85706DFFE5E70027002101E057F001070029FE
S3151FFF85801BD1641C207820280BD023280FD02B2823
S3151FFF859004D02D28F1D0302806D00BE057F0020764
S3151FFF85A0EDE757F00407EAE757F00807E7E757F045
S3151FFF85B01007E4E7641E0121E1E75FF000080021D1
S3151FFF85C004E00A2000FB0830B0F13008002908D16B
S3151FFF85D0641C2378180030380928F2D9641E01213C
S3151FFF85E0F4E7641C20782E280BD10021FFE7002912
S3151FFF85F008D1641C207830380928F8D9641E012158
S3151FFF8600F5E7641E641C20784C2806D0682802D024
S3151FFF86106C2801D002E002E001E000E0641E641C4A
S3151FFF862023781800582878D0622800F0DA8063284C
S3151FFF863000F02481642813D0692811D06E2800F01A
S3151FFF86404D816F2800F0C280702800F0D5807328F7
S3151FFF865000F01B81752800F0DA8078285DD06AE765
S3151FFF866030680390361D0A23012203A904A8FFF7CA
S3151FFF867003FF824604A81AEB00090398002804D5B6
S3151FFF86802D2002901AF1010A11E03800800704D548
S3151FFF86902B2002901AF1010A09E03800400704D582
S3151FFF86A0202002901AF1010A01E0002002905FF0DC
S3151FFF86B0000B3800000711D50298002804D02A00A6
S3151FFF86C000A90298FFF7C2FE5FF0010B2B0000AA5D
S3151FFF86D041465046FFF708FFC24612E03800C00763
S3151FFF86E00FD42B0000AA41465046FFF70CFF0298F6
S3151FFF86F0002804D02A0000A90298FFF7A7FE5FF003
S3151FFF8700010BBBF1000F07D10298002804D02A00E6
S3151FFF871000A90298FFF79AFEA3E030680190361D65
S3151FFF87201023002201A904A8FFF7A6FE824604A86C
S3151FFF87301AEB00095FF0000B3800000716D538004B
S3151FFF8740C0060BD52A0000A93020FFF77FFE2A009F
S3151FFF875000A97820FFF77AFE5FF0010B2B0000AA16
S3151FFF876041465046FFF7C0FEC2461CE03800C00711
S3151FFF877019D43800C00601D51AF1020A2B0000AA28
S3151FFF878041465046FFF7BFFE3800C0060BD52A00ED
S3151FFF879000A93020FFF75AFE2A0000A97820FFF70D
S3151FFF87A055FE5FF0010B3800C0060ED5BBF1000F5B
S3151FFF87B00BD12A0000A93020FFF748FE2A0000A987
S3151FFF87C07820FFF743FE1AF1020A4AE0306801904C
S3151FFF87D0361D0823002201A904A8FFF74DFE824676
S3151FFF87E01FE030680190361D0223002201A904A84D
S3151FFF87F0FFF742FE824614E030680190361D1023B4
S3151FFF8800002201A904A8FFF737FE824609E0306858
S3151FFF88100190361D0A23002201A904A8FFF72CFE8B
S3151FFF8820824604A81AEB00093800000707D52B005C
S3151FFF883000AA41465046FFF757FEC24611E03800D1
S3151FFF8840C0070ED42B0000AA41465046FFF75BFE1A
S3151FFF885007E02A0000A999F80000FFF7F7FDB9F115
S3151FFF8860010999F800000028F3D1F80705D52B0059
S3151FFF887000AA41465046FFF746FE61E63078361D91
S3151FFF88802A0000A9FFF7E2FD5AE6D6F80090361D2B
S3151FFF8890B9F1000F21D0484600F03AF8824638005A
S3151FFF88A0C0070ED42B0000AA41465046FFF72BFEEA
S3151FFF88B007E02A0000A999F80000FFF7C7FD19F185
S3151FFF88C0010999F800000028F3D1F80705D52B00F9
S3151FFF88D000AA41465046FFF716FE31E63068361DA1
S3151FFF88E0009901602CE600980DB0BDE8F08F0EB41D
S3151FFF88F000B584B0012100910449019105AA010029
S3151FFF890000A8FFF70FFE04B05DF810FB11A7FF1FAE
S3151FFF89100021002802D1002006E0491C0200501C3E
S3151FFF89201278002AF9D10800704750F8041B61B16D
S3151FFF893050F8042BD30744BFA9F101039A1800234C
S3151FFF894042F8043B091FFAD1EFE7704780B500F0E5
S3151FFF89502FFA00F049FA00F095FADFF85003007876
S3151FFF8960400703D5DFF84803FFF7C1FFDFF83C03D6
S3151FFF89700078800703D5DFF83C03FFF7B8FFDFF862
S3151FFF89802C030078C00703D5DFF82C03FFF7AFFFD3
S3151FFF8990DFF828030078000603D5DFF82403FFF767
S3151FFF89A0A6FFDFF818030078400603D5DFF8140388
S3151FFF89B0FFF79DFFDFF804030078800603D5DFF876
S3151FFF89C00803FFF794FFDFF8F4020078400703D58B
S3151FFF89D0DFF8F802FFF78BFFDFF8E002007880076A
S3151FFF89E003D5DFF8EC02FFF782FFDFF8D00200782E
S3151FFF89F0C00703D5DFF8DC02FFF779FF00F003F8A6
S3151FFF8A0000F0AEFAFEE780B5DFF8CC02006800097A
S3151FFF8A1010F0070000280BD0022811D00CD3042812
S3151FFF8A2016D011D306281BD016D307281CD01FE03C
S3151FFF8A30AA48FFF75CFF1EE0A948FFF758FF1AE099
S3151FFF8A40A848FFF754FF16E0A748FFF750FF12E0AD
S3151FFF8A50A648FFF74CFF0EE0A548FFF748FF0AE0C1
S3151FFF8A60A448FFF744FF06E0A348FFF740FF02E0D5
S3151FFF8A70A248FFF73CFF9848006810F00F00022836
S3151FFF8A8012D0042814D0052816D0062818D0072878
S3151FFF8A901AD008281CD009281ED00A2820D00C2837
S3151FFF8AA022D00E2824D027E09548FFF720FF26E087
S3151FFF8AB09448FFF71CFF22E09348FFF718FF1EE0BD
S3151FFF8AC09248FFF714FF1AE09148FFF710FF16E0D1
S3151FFF8AD09048FFF70CFF12E08F48FFF708FF0EE0E5
S3151FFF8AE08E48FFF704FF0AE08D48FFF700FF06E0F9
S3151FFF8AF08C48FFF7FCFE02E08B48FFF7F8FE76482F
S3151FFF8B000068000B10F00F00002803D0022809D0C1
S3151FFF8B1004D30BE08548FFF7EAFE0AE08448FFF718
S3151FFF8B20E6FE06E08348FFF7E2FE02E08248FFF714
S3151FFF8B30DEFE00F06AF881480068000E10F00F0095
S3151FFF8B40072806D0092808D00B280AD00F280CD0D3
S3151FFF8B500FE07B48FFF7CBFE0EE07A48FFF7C7FE15
S3151FFF8B600AE07948FFF7C3FE06E07748FFF7BFFE27
S3151FFF8B7002E07648FFF7BBFE75480068000203D583
S3151FFF8B807448FFF7B4FE1EE06C480068000F00280C
S3151FFF8B9006D0072808D009280AD00F280CD00FE0C7
S3151FFF8BA06D48FFF7A4FE0EE06C48FFF7A0FE0AE034
S3151FFF8BB06B48FFF79CFE06E06948FFF798FE02E049
S3151FFF8BC06848FFF794FE68480068000B10F00F0017
S3151FFF8BD0052806D0072808D008280AD009280CD050
S3151FFF8BE00FE06248FFF783FE0EE06148FFF77FFE47
S3151FFF8BF00AE06048FFF77BFE06E05F48FFF777FE58
S3151FFF8C0002E05E48FFF773FE01BD80B55C48032196
S3151FFF8C1001705C48002101705B48002101705B48B1
S3151FFF8C20002101705A48012101705A4880210170A5
S3151FFF8C30584800780006FBD55748017857480278F1
S3151FFF8C405748037857480078C0B20090DBB2D2B2BC
S3151FFF8C50C9B25548FFF74BFE4948032101704948E2
S3151FFF8C600021017048480021017048480421017006
S3151FFF8C704748012101704748802101704548007808
S3151FFF8C800006FBD5444801784448027844480378D8
S3151FFF8C9044480078C0B20090DBB2D2B2C9B2434893
S3151FFF8CA0FFF725FE3B48FF21017001BD00E007408E
S3151FFF8CB048A6FF1FACA4FF1F24A7FF1F01E0074005
S3151FFF8CC05CA6FF1F00A5FF1F18A5FF1F30A5FF1FCF
S3151FFF8CD0C8A4FF1F34A7FF1F2480044000A8FF1F3F
S3151FFF8CE008A8FF1F10A8FF1F18A8FF1F20A8FF1FF8
S3151FFF8CF028A8FF1F30A8FF1F38A8FF1FA8A3FF1F05
S3151FFF8D0044A7FF1F54A7FF1F64A7FF1F74A7FF1FBB
S3151FFF8D1084A7FF1F94A7FF1FA4A7FF1FB4A7FF1FAB
S3151FFF8D20C4A7FF1FD4A7FF1F50A3FF1F48A5FF1FE1
S3151FFF8D3070A6FF1F84A6FF1F40A2FF1F4C80044083
S3151FFF8D4060A5FF1F78A5FF1F90A5FF1F2CA4FF1F60
S3151FFF8D5050800440E4A7FF1FA8A5FF1FC0A5FF1F44
S3151FFF8D60D8A5FF1F4CA4FF1F0070044098A6FF1F26
S3151FFF8D70ACA6FF1FC0A6FF1FD4A6FF1FE4A4FF1F9D
S3151FFF8D8007000240060002400500024004000240A1
S3151FFF8D900F000240000002400B0002400A00024083
S3151FFF8DA00900024008000240D0A3FF1F6CA4FF1F4B
S3151FFF8DB080B500F009F80A4800884FF6FE71084093
S3151FFF8DC00749088001BD000072B606484CF22051C4
S3151FFF8DD0018004484DF62811018062B670470000D6
S3151FFF8DE0002005400E20054080B51C481C498842BF
S3151FFF8DF00BD0002006E01949194A52F8202041F8E6
S3151FFF8E002020401CB0F5826FF5D3144800F022F9DD
S3151FFF8E101449154A1548801A03E013780B70521C24
S3151FFF8E20491C0300581E002BF7D111491148401A40
S3151FFF8E3002E000220A70491C0200501E002AF8D1C8
S3151FFF8E400D490E4A0E48801A03E013780B70521C09
S3151FFF8E50491C0300581E002BF7D101BD0080FF1FC1
S3151FFF8E600080FF1F8CA8FF1FFCA1FF1F40A2FF1F33
S3151FFF8E70D0A8FF1FD4AAFF1F40A8FF1FB0A1FF1F27
S3151FFF8E80FCA1FF1F80B52848006850F4785026497B
S3151FFF8E900860642000F03AF92449086023480068F7
S3151FFF8EA04FF47A71484322490860214800682149D7
S3151FFF8EB00968C1F30361491CB0FBF1F01E49086045
S3151FFF8EC000F01CF800F025F81C484FF440710160B4
S3151FFF8ED01B484FF4407101605FF4E1321648016889
S3151FFF8EE0184800F029FA114801681748FFF7FFFCD9
S3151FFF8EF0114801681548FFF7FAFC01BD14480068C1
S3151FFF8F0050F480501249086012484FF4E061016027
S3151FFF8F1070471148006850F001000F4908600F485D
S3151FFF8F204FF4A0610160704738800440C4AAFF1F39
S3151FFF8F30C0AAFF1F44800440C8AAFF1F20D00440B9
S3151FFF8F4024D0044000B00E40E8A6FF1FFCA6FF1F5B
S3151FFF8F500480044018900440408004400CB0044035
S3151FFF8F6080B500F063FA00F06BFB0FF2990241F236
S3151FFF8F708831002000F04AFC0FF28D02254901209F
S3151FFF8F8000F044FC4FF49641012000F0ABFC4FF478
S3151FFF8F909641022000F0A6FC4FF49641052000F0F3
S3151FFF8FA0A1FC0FF28101012000F056FD0FF2850192
S3151FFF8FB0022000F051FD0FF28D01052000F04CFD40
S3151FFF8FC000F054FB00F0C1FE134801210170134846
S3151FFF8FD000F0CDFE10480078012812D10F48007807
S3151FFF8FE000280ED10D48407800280AD10B488078FB
S3151FFF8FF0002806D10948C078002802D1064800215B
S3151FFF90000170DDE77047000080B500F0C9FB04491A
S3151FFF9010087001BDA0860100CDAAFF1F30A9FF1F43
S3151FFF9020CCAAFF1F80B5012000F00DFDC0B200F0D6
S3151FFF903016FE01BD80B5022000F005FDC0B200F08F
S3151FFF90409EFD01BD80B5052000F0FDFCC0B200F0FE
S3151FFF905006FE01BD25490860704710B504005C2C4C
S3151FFF906002DB2348FFF743FC202094FBF0F0002888
S3151FFF907003D0022827D013D337E00120202194FBEA
S3151FFF9080F1F202FB114290401A490860012020218C
S3151FFF909094FBF1F202FB114290401749086024E04E
S3151FFF90A00120202194FBF1F202FB1142904013494C
S3151FFF90B008600120202194FBF1F202FB1142904030
S3151FFF90C00F49086011E00120202194FBF1F202FBFA
S3151FFF90D0114290400B4908600120202194FBF1F2B9
S3151FFF90E002FB114290400849086010BD08ED00E0E1
S3151FFF90F080A2FF1F80E200E000E100E084E200E0C3
S3151FFF910004E100E088E200E008E100E010B5C0B22C
S3151FFF91106F2851D21822814B00241C70804B1B686D
S3151FFF912053F080537E4C23607E4B1B7853F0800396
S3151FFF91307C4C23707C4B98241C707C4B1B78DB0666
S3151FFF9140FBD47A4B1B78C3F38103DBB2022BF8D117
S3151FFF915012F01F02764B1A70764A00231370C0B2A5
S3151FFF91603C281ED0462833D050283CD05A2845D0FD
S3151FFF917060284ED0642857D06E2860D0782869D0D3
S3151FFF9180822872D096287BD0AA2800F08480B42824
S3151FFF919000F08C80C82800F09480D12800F09C80B6
S3151FFF91A0A4E0022301220121002001F049FB6148AF
S3151FFF91B0462101703C2199E0C0B2C92801D20C2279
S3151FFF91C0A9E7C0B2DD2801D20B22A4E70020A4E045
S3151FFF91D0022301220121002001F032FB55484B21BA
S3151FFF91E00170462182E0032301220121002001F0A5
S3151FFF91F027FB504850210170502177E0032301229E
S3151FFF92000121002001F01CFB4A48552101705A21FC
S3151FFF92106CE0032301220121002001F011FB4548C9
S3151FFF922058210170602161E00323012201210020E3
S3151FFF923001F006FB3F485A210170642156E00423C3
S3151FFF924002220221002001F0FBFA3A485F2101703A
S3151FFF92506E214BE0042302220221002001F0F0FAC7
S3151FFF9260344847210170782140E00523022202215D
S3151FFF9270002001F0E5FA2F484A210170822135E0CF
S3151FFF9280052302220221002001F0DAFA29484F2185
S3151FFF9290017096212AE0062303220321002001F0F5
S3151FFF92A0CFFA244854210170AA211FE00723032266
S3151FFF92B00321002001F0C4FA1E4857210170B42173
S3151FFF92C014E0072303220321002001F0B9FA1948EE
S3151FFF92D05C210170C82109E0082304220421002014
S3151FFF92E001F0AEFA13485A210170D1210F480078B9
S3151FFF92F08006FBD50D4800784006FBD50A48007847
S3151FFF930010F03F00084A107008480078C0F381002C
S3151FFF9310C0B20328F8D10800C0B210BD01400640F5
S3151FFF93203480044008C00740004006400640064000
S3151FFF9330044006400540064030B4324B984206D1E2
S3151FFF9340314B1B6853F480632F4C23602DE02F4B4B
S3151FFF9350984206D12C4B1B6853F400632A4C23609B
S3151FFF936023E02B4B984206D1274B1B6853F48053A0
S3151FFF9370254C236019E0274B984206D1224B1B68C9
S3151FFF938053F40053204C23600FE0234B984206D122
S3151FFF9390224B1B6853F48063204C236005E01F4B51
S3151FFF93A01B6853F400631D4C2360C37813F0F3034C
S3151FFF93B0C370002383704FF47A7303FB01F3140109
S3151FFF93C093FBF4F3047814F0E0049BB21D0A15F027
S3151FFF93D01F052C43047043704FF4FA446143120177
S3151FFF93E091FBF2F19BB2B1EB4311827A12F0E004CB
S3151FFF93F011F01F0121438172C17851F00C01C17019
S3151FFF940030BC704700A006403480044000B00640C1
S3151FFF941000C0064000D0064000A00E402880044032
S3151FFF942002791206FCD5C1717047000080B5002076
S3151FFF94300090012300220021042000F0D9FC002008
S3151FFF94400090012300220121042000F0D1FC0020FF
S3151FFF94500090012300220221042000F0C9FC0020F6
S3151FFF94600090012300220321042000F0C1FC0020ED
S3151FFF94700090012300220421042000F0B9FC0020E4
S3151FFF94800090012300220521042000F0B1FC0020DB
S3151FFF94900090012300220621042000F0A9FC0020D2
S3151FFF94A00090002301220F21002000F0A1FC0020C5
S3151FFF94B00090002301221721012000F099FC0020B4
S3151FFF94C00090012300220921012000F091FC0020BA
S3151FFF94D00090012300220A21012000F089FC0020B1
S3151FFF94E00090012300220B21012000F081FC0020A8
S3151FFF94F00090012300221221012000F079FC002099
S3151FFF95000090012300221321012000F071FC00208F
S3151FFF95100090012300221421012000F069FC002086
S3151FFF95200090012300221521012000F061FC00207D
S3151FFF95300090012300221621012000F059FC002074
S3151FFF95400090012300220621022000F051FC00207B
S3151FFF95500090012300220721022000F049FC002072
S3151FFF95600090012300220821022000F041FC002069
S3151FFF95700090012300220421002000F039FC002067
S3151FFF95800090012300220521002000F031FC00205E
S3151FFF95900090012300220C21002000F029FC00204F
S3151FFF95A00090012300220D21002000F021FC002046
S3151FFF95B00090012300220E21002000F019FC00203D
S3151FFF95C00090012300221021002000F011FC002033
S3151FFF95D00090012300221121002000F009FC00202A
S3151FFF95E00090012300221821042000F001FC002017
S3151FFF95F00090012300221921042000F0F9FB00200F
S3151FFF96000090012300221A21042000F0F1FB002005
S3151FFF96100090012300220921022000F0E9FB002010
S3151FFF96200090012300220C21022000F0E1FB002005
S3151FFF96300090012300220D21022000F0D9FB01BD5E
S3151FFF964080B542F2107000F07FFC0021042000F06D
S3151FFF965004FD0021052000F000FD0021062000F07B
S3151FFF9660FCFC0021072000F0F8FC01BD80B5092195
S3151FFF9670012000F03FFC464908700A21012000F037
S3151FFF968039FC434948700B21012000F033FC404948
S3151FFF969088701221012000F02DFC3D49C87013214F
S3151FFF96A0012000F027FC3A4908711421012000F020
S3151FFF96B021FC374948711521012000F01BFC344955
S3151FFF96C088711621012000F015FC3149C87106214A
S3151FFF96D0022000F00FFC2E4908720721022000F01E
S3151FFF96E009FC2B4948720821022000F003FC284978
S3151FFF96F088720421002000F0FDFB26490870052112
S3151FFF9700002000F0F7FB234948700C21002000F0D2
S3151FFF9710F1FB204988700D21002000F0EBFB1D494E
S3151FFF9720C8700E21002000F0E5FB1A4908711021B1
S3151FFF9730002000F0DFFB174948711121002000F0C0
S3151FFF9740D9FB144988711821042000F0D3FB124955
S3151FFF975008701921042000F0CDFB0F4948701A210C
S3151FFF9760042000F0C7FB0C4988700921022000F076
S3151FFF9770C1FB0A4908700C21022000F0BBFB0749F9
S3151FFF978048700D21022000F0B5FB0449887001BD0A
S3151FFF979014A9FF1F20A9FF1F28A9FF1F2CA9FF1F01
S3151FFF97A010B500240021042000F0A4FB002800D1DF
S3151FFF97B0641C0121042000F09DFB002800D1A41C7E
S3151FFF97C00221042000F096FB002800D1241D03214F
S3151FFF97D0042000F08FFB002800D108340421042049
S3151FFF97E000F088FB002800D110340521042000F06B
S3151FFF97F081FB002800D120340621042000F07AFBCC
S3151FFF9800002800D140342000C0B210BD70B504003F
S3151FFF98100E001500E4B2042C03D348212A4800F09A
S3151FFF98207DFC2A4800684FF47A7190FBF1F046439E
S3151FFF9830002E03D14E21244800F070FC24480068F7
S3151FFF984050F40000224908602248002101602800C9
S3151FFF9850002808D0E4B2204840F82450E4B214F19F
S3151FFF98604400FFF7FAFBE4B220011C49721E425067
S3151FFF9870E4B21A4810EB041002218160E4B21748C4
S3151FFF988010EB0410806850F00100E4B2134911EB8E
S3151FFF989004118860012070BD10B511480078B0F122
S3151FFF98A05404E4B20C4850F824008047E4B20B4836
S3151FFF98B010EB0410C06850F00100E4B2074911EB2A
S3151FFF98C00411C86010BD0000ECA2FF1FC8AAFF1F2E
S3151FFF98D03C80044000700340ECA8FF1F007103404B
S3151FFF98E004ED00E030B4C0B2734A52F82000734A49
S3151FFF98F0904208D00022724B984204D052F00002C9
S3151FFF9900D2B2002A02D06F4A126801E06E4A12686D
S3151FFF99106A4B98420ED16D4B1B6853F480636B4C99
S3151FFF992023606B4B4FF440741C606A4B4FF44074BB
S3151FFF99301C605BE0624B984214D1644B1B6853F467
S3151FFF99400063624C2360614B1B6853F480535F4C6B
S3151FFF99502360614B4FF440741C60604B4FF440749F
S3151FFF99601C6043E05E4B98420ED1584B1B6853F465
S3151FFF99708053564C23605B4B4FF440741C605A4B0D
S3151FFF99804FF440741C6031E0584B98420ED14F4B39
S3151FFF99901B6853F400534D4C2360554B4FF44074D3
S3151FFF99A01C60544B4FF440741C601FE0524B98428F
S3151FFF99B00ED1524B1B6853F48063504C23604C4BA4
S3151FFF99C04FF440741C604B4B4FF440741C600DE00A
S3151FFF99D04A4B1B6853F40063484C2360484B4FF4B4
S3151FFF99E040741C60474B4FF440741C60C37813F0E0
S3151FFF99F0F303C370002383704FF47A7303FB02F3E1
S3151FFF9A000C0193FBF4F3047814F0E0049BB21D0AD8
S3151FFF9A1015F01F052C43047043704FF4FA4462433D
S3151FFF9A20090192FBF1F19BB2B1EB4311827A12F05E
S3151FFF9A30E00411F01F0121438172C17851F00C011F
S3151FFF9A40C17030BC7047C0B21B4951F82000017965
S3151FFF9A508906FCD5C079704780B5C0B2164A52F841
S3151FFF9A602020C0B2284B43F82010D17851F0200197
S3151FFF9A70D170C0B240002D30FFF7EFFA01BD80B5A0
S3151FFF9A8022480078C0B23D38022190FBF1F02049F1
S3151FFF9A9051FA80F10903C0B2042803D31D4951FAB5
S3151FFF9AA080F109030979890604D5C0B2164951F811
S3151FFF9AB02000804701BD0000B4A8FF1F00A006407D
S3151FFF9AC000B00640C0AAFF1FC8AAFF1F348004406C
S3151FFF9AD044A0044040A0044010B004400CB0044012
S3151FFF9AE000C006400CC0044008C0044000D006401A
S3151FFF9AF03CB0044038B0044000A00E40288004400C
S3151FFF9B0020D0044024D00440FCA8FF1F04ED00E032
S3151FFF9B106A000400E600040010B400210023C27986
S3151FFF9B20002A04D0012A1FD0FF2A22D025E00021B8
S3151FFF9B308278B2F10903002202E0145C0919521C54
S3151FFF9B4013F10804A242F8D3C9B21A18127A8A422D
S3151FFF9B5009D1002205E01118097ADFF86432D154C2
S3151FFF9B60521C0A2AF7D308E0007ADFF8581208704A
S3151FFF9B7003E0007ADFF84012087010BC704710B57B
S3151FFF9B800400DFF84402007800281DD1DFF83C02ED
S3151FFF9B900078552818D1E4B2AA2C15D1DFF8280270
S3151FFF9BA001210170DFF82802DFF820120978017002
S3151FFF9BB0DFF81C024470DFF81C0202210160DFF888
S3151FFF9BC00C020021017049E0DFF8FC010078012833
S3151FFF9BD041D1DFF800020068022811D1DFF8F80132
S3151FFF9BE0E4B20460DFF8F0010068802808DBDFF8C5
S3151FFF9BF0D80100210170DFF8DC01002101602DE093
S3151FFF9C00DFF8D0010068DFF8C8114454DFF8C4013C
S3151FFF9C100068401CDFF8BC110860DFF8B801006858
S3151FFF9C20DFF8B4110968884207D1DFF8A401FFF7EF
S3151FFF9C3073FFDFF8940100210170DFF898010068B8
S3151FFF9C40802808DBDFF8800100210170DFF884011F
S3151FFF9C500021016002E0DFF87401047010BD80B5BA
S3151FFF9C600100C9B25D4800F06DFA01BD10B40022B4
S3151FFF9C70002302E01C5C62405B1C8B42FADB100078
S3151FFF9C80C0B210BC704710B50400554800780028B5
S3151FFF9C9008D15348012101705248047052480121CF
S3151FFF9CA0017051E050480078052820D1002005E0BB
S3151FFF9CB04C49411849784B4A8154401C0428F7DB0D
S3151FFF9CC004214848FFF7D2FFE4B2844208D100209F
S3151FFF9CD004E04649434A825C4254401C0428F8DB91
S3151FFF9CE04148002101703E48002101702CE03C488D
S3151FFF9CF00078012828D13C4800783A4944543A480D
S3151FFF9D000078401C3849087037480078052814D159
S3151FFF9D1004213448FFF7AAFF32490979C0B28142AD
S3151FFF9D200BD1002004E031492E4A825C4254401C6D
S3151FFF9D300428F8DB2C48002101702B4800783028B7
S3151FFF9D4002D327480021017010BD80B500208DF872
S3151FFF9D500000002003E09DF80000FFF794FF00A915
S3151FFF9D601E4800F002FAC0B20128F4D201BD10B49A
S3151FFF9D700021124A0023136017E0104A12680F4B87
S3151FFF9D801B681A4C1B5D13540C4A1268174BD25C87
S3151FFF9D90002A05D00121094A1268144B0024D45406
S3151FFF9DA0064A1268521C054B1A60044A1268042A97
S3151FFF9DB0E3DB080010BC7047CEAAFF1F34A9FF1FA5
S3151FFF9DC078A9FF1FCFAAFF1FD1AAFF1FD0AAFF1F68
S3151FFF9DD038A9FF1F84A9FF1FCCA8FF1F88A9FF1F34
S3151FFF9DE0D2AAFF1F90AAFF1FD3AAFF1F8CAAFF1F6E
S3151FFF9DF02DE9F8430D0016001F00089CC0B24C4901
S3151FFF9E0051F82080C0B24B4951F82090C0B20528A7
S3151FFF9E1003D36321484800F081F9EDB2202D03D308
S3151FFF9E206421454800F07AF9F6B2022E03D3652165
S3151FFF9E30414800F073F9FFB2022F03D366213E4854
S3151FFF9E4000F06CF9E4B20D2C03D367213A4800F0FA
S3151FFF9E5065F9EDB24FF4807049F82500F6B2012E71
S3151FFF9E6013D1D8F814000121A9400843C8F81400DC
S3151FFF9E70FFB2012F04D10120A840C8F8040036E025
S3151FFF9E800120A840C8F8080031E0D8F814000121C6
S3151FFF9E90A9408843C8F81400EDB259F82500E4B26B
S3151FFF9EA0210411F470210843EDB249F82500FFB2D2
S3151FFF9EB0012F08D1EDB259F8250050F00300EDB27E
S3151FFF9EC049F8250013E0FFB2002F08D1EDB259F86C
S3151FFF9ED0250050F00200EDB249F8250007E0EDB26C
S3151FFF9EE059F8250030F00200EDB249F82500012090
S3151FFF9EF0BDE8F283C0B20E4A52F820000069C8407F
S3151FFF9F0010F00100704710B50D480078B0F16704D7
S3151FFF9F10E4B20A4850F8240080470A4850FA84F0F2
S3151FFF9F2000035FF0FF31C0F8A01010BD0000000056
S3151FFF9F308CA8FF1FA0A8FF1FB8A2FF1FD4A8FF1F33
S3151FFF9F4004ED00E04900040010B4DFF8A81109680A
S3151FFF9F504FF47A725143814201D200207BE0802267
S3151FFF9F6002FB00F2B1FBF2F34FF6FF72934271D27F
S3151FFF9F700722DFF888412360402303FB00F3B1FB71
S3151FFF9F80F3F34FF6FF74A34244D20622DFF86C4168
S3151FFF9F9023604301B1FBF3F34FF6FF74A34239D29C
S3151FFF9FA00522DFF8584123600301B1FBF3F34FF698
S3151FFF9FB0FF74A3422ED20422DFF840412360C30061
S3151FFF9FC0B1FBF3F34FF6FF74A34223D20322DFF84D
S3151FFF9FD02C4123608300B1FBF3F34FF6FF74A342BB
S3151FFF9FE018D20222DFF8144123604300B1FBF3F3BB
S3151FFF9FF04FF6FF74A3420DD20122DFF80041236003
S3151FFFA000B1FBF0F34FF6FF70834203D20022DFF856
S3151FFFA010EC000360DFF8E000006850F08070DFF8A7
S3151FFFA020D8100860D2B212F0070050F00800DFF810
S3151FFFA030D0100860DFF8CC0000210160DFF8C800F0
S3151FFFA04000210160DFF8C400DFF8B0100968016066
S3151FFFA050012000E0002010BC704781B042F2117250
S3151FFFA060914201D3002031E0DFF890201268009261
S3151FFFA070009A521C514342F21072B1FBF2F1C0B269
S3151FFFA0800200002A032A03D9121F032A20D92FE011
S3151FFFA090DFF87C20126852F40062DFF874301A6012
S3151FFFA0A0C0B2820002F1804212F596224FF48063FE
S3151FFFA0B05360C0B2DFF85C20282342F83030C0B2AD
S3151FFFA0C0DFF8502012EBC0004160012001B070473E
S3151FFFA0D0DFF83C20126852F48052DFF834301A60E2
S3151FFFA0E0C0B2DFF834204FF4806342F82030E0E738
S3151FFFA0F00020EBE7C8AAFF1F3C800440D0A8FF1F24
S3151FFFA10000800340048003404C80034008800340C7
S3151FFFA110388004400C80034000C0044080B50A000D
S3151FFFA12001000648FEF7E3FB054800E0401E002836
S3151FFFA130FCD103480028F7D0401EFBE7F8A3FF1FFB
S3151FFFA140A086010090F80121115490F80111491CB6
S3151FFFA15080F8011190F801114FF4807289B2914274
S3151FFFA16002D3002180F80111704710B4002290F826
S3151FFFA170013190F80041A34214D090F80021125CE0
S3151FFFA1800A7090F80011491C80F8001190F8001111
S3151FFFA1904FF4807289B2914202D3002180F80011D9
S3151FFFA1A0012200E000221000C0B210BC7047000061
S3151FFFA1B070B4104C24680F4D2D6855F47F050D4E56
S3151FFFA1C03560090611F0706151EA0070110511F42F
S3151FFFA1D070010843190411F47021084306490860EA
S3151FFFA1E0002000E0401CC0B29842FBD30148046028
S3151FFFA1F070BC704700F001404480044000F00F40E0
S3151FFFA20040F00F4080F00F40C0F00F4000F10F40AD
S3151FFFA2100090044000A0044000B0044000C004406A
S3151FFFA22000D0044000A0064000B0064000C0064014
S3151FFFA23000D0064000A00E4000B00E4003000000F5
S3151FFFA2400A546869732076657273696F6E206F662D
S3151FFFA25020736F66747761726520646F65736E27EF
S3151FFFA26074207265636F676E697A652074686520EF
S3151FFFA2707265766973696F6E20636F64652E000062
S3151FFFA2800A4552522120496E76616C6964204952F4
S3151FFFA290512076616C7565207061737365642074D8
S3151FFFA2A06F20656E61626C65206972712066756EBF
S3151FFFA2B06374696F6E210A00443A5CD6D0B9FABB44
S3151FFFA2C0FAC6F7C8CBB4F3C8FC5C726F626F745FD4
S3151FFFA2D070726F6A6563745C6C69625C4C504C4448
S3151FFFA2E05C48414C5F4750494F2E6300443A5CD64A
S3151FFFA2F0D0B9FABBFAC6F7C8CBB4F3C8FC5C726F0A
S3151FFFA300626F745F70726F6A6563745C6C69625C9F
S3151FFFA3104C504C445C48414C5F5049542E630000DF
S3151FFFA3200A2A2A2A2A64656661756C745F697372C5
S3151FFFA33020656E7465726564206F6E207665637423
S3151FFFA3406F722025642A2A2A2A2A0D0A0A0000006C
S3151FFFA3500A556E7265636F676E697A6564204B690E
S3151FFFA3606E65746973207061636B61676520636FC8
S3151FFFA37064652E2020202020200A000010B50849E2
S3151FFFA38079441C31074C7C441A34A14206D0081D60
S3151FFFA3900A68511888470146A142F8D110BD00BF70
S3151FFFA3A07C000000880000000A556E7265636F67A8
S3151FFFA3B06E697A6564204B696E6574697320666181
S3151FFFA3C06D696C79206465766963652E0A000000E6
S3151FFFA3D0466C61736820706172616D65746572206A
S3151FFFA3E076657273696F6E2025642E25642E25642C
S3151FFFA3F02E25640A00000000417373657274696F2E
S3151FFFA4006E206661696C656420696E202573206105
S3151FFFA41074206C696E652025640A00000FE5FFFF37
S3151FFFA42004020000D0A8FF1F000000004552522162
S3151FFFA4302120556E646566696E656420502D666CB6
S3151FFFA4406173682073697A650A00000045525221BD
S3151FFFA4502120556E646566696E656420466C657856
S3151FFFA4604E564D2073697A650A000000466C61736C
S3151FFFA470682076657273696F6E2049442025642EA6
S3151FFFA48025642E25642E25640A00000080B5054825
S3151FFFA490006850F080000349086003480068804742
S3151FFFA4A001BD000000000440E8A8FF1F436F72654F
S3151FFFA4B0204C6F636B7570204576656E74205265F1
S3151FFFA4C07365740D0A0000004C6F772D766F6C74E1
S3151FFFA4D0616765204465746563742052657365748F
S3151FFFA4E00D0A0000455252212120556E646566698B
S3151FFFA4F06E65642052414D2073697A650A0A000012
S3151FFFA50045787465726E616C2050696E2052657353
S3151FFFA51065740D0A000000005761746368646F67F6
S3151FFFA52028434F50292052657365740D0A0000009A
S3151FFFA5304C6F7373206F6620436C6F636B2052657E
S3151FFFA5407365740D0A00000053696C69636F6E2093
S3151FFFA55072657620312E302020200A200000000051
S3151FFFA560313238206B4279746573206F6620502D08
S3151FFFA570666C617368090A00323536206B4279743F
S3151FFFA5806573206F6620502D666C617368090A001C
S3151FFFA590353132206B4279746573206F6620502DDB
S3151FFFA5A0666C617368090A0030206B4279746573A4
S3151FFFA5B0206F6620466C65784E564D0A00000000D8
S3151FFFA5C0313238206B4279746573206F6620466C73
S3151FFFA5D065784E564D0A0000323536206B42797428
S3151FFFA5E06573206F6620466C65784E564D0A0000D0
S3151FFFA5F080B503480178C9B20248FEF778F901BD55
S3151FFFA60004ED00E020A3FF1F00F009F8002801D08A
S3151FFFA610FFF7B4FE0020FEF7A3FC00F002F80120AF
S3151FFFA620704700F001B800000746384600F002F8F1
S3151FFFA630FBE7000080B5C046C046024A110018203E
S3151FFFA640ABBEFBE726000200536F66747761726528
S3151FFFA6502052657365740D0A00000000506F776501
S3151FFFA660722D6F6E2052657365740D0A0000000010
S3151FFFA67053696C69636F6E2072657620312E3120A8
S3151FFFA680200A200053696C69636F6E2072657620FE
S3151FFFA690312E3220200A20003332206B4279746517
S3151FFFA6A073206F662052414D0A0A00003634206B15
S3151FFFA6B04279746573206F662052414D0A0A000066
S3151FFFA6C03936206B4279746573206F662052414D70
S3151FFFA6D00A0A0000313238206B4279746573206F86
S3151FFFA6E0662052414D0A0A00436F726520436C6F05
S3151FFFA6F0636B3A25644D487A210D0A004275732014
S3151FFFA700436C6F636B3A25646B487A210D0A000011
S3151FFFA71080B50100C9B20248FEF782FE01BD0000E7
S3151FFFA72000B00E404A5441472052657365740D0AA7
S3151FFFA730000000004C4C57552052657365740D0A77
S3151FFFA74000000000333270696E2020202020202059
S3151FFFA7500A000000343870696E2020202020202038
S3151FFFA7600A000000363470696E202020202020202A
S3151FFFA7700A000000383070696E202020202020201C
S3151FFFA7800A000000383170696E202020202020200B
S3151FFFA7900A00000031303070696E202020202020F3
S3151FFFA7A00A00000031303470696E202020202020DF
S3151FFFA7B00A00000031343470696E202020202020CB
S3151FFFA7C00A00000031393670696E202020202020B4
S3151FFFA7D00A00000032353670696E202020202020A7
S3151FFFA7E00A000000502D666C617368206F6E6C79CE
S3151FFFA7F00A000000C046C046C046C046FFF704FF1A
S3151FFFA8000A4B31302D0000000A4B32302D0000005D
S3151FFFA8100A4B33302D0000000A4B34302D00000049
S3151FFFA8200A4B36302D0000000A4B37302D00000033
S3151FFFA8300A4B35302D0000000A4B35332D00000023
S7051FFFA7F540
